{
  "_format": "hh-sol-artifact-1",
  "contractName": "Lock",
  "sourceName": "contracts/Lock.sol",
  "abi": [
    {
      "inputs": [
        {
          "internalType": "string",
          "name": "name",
          "type": "string"
        },
        {
          "internalType": "uint256",
          "name": "price",
          "type": "uint256"
        },
        {
          "internalType": "string",
          "name": "quantity",
          "type": "string"
        }
      ],
      "name": "addPatient",
      "outputs": [],
      "stateMutability": "nonpayable",
      "type": "function"
    }
  ],
  "bytecode": "0x60806040526000805573c35c72978dd83b0e8698dffb764b572a75e53383600160006101000a81548173ffffffffffffffffffffffffffffffffffffffff021916908373ffffffffffffffffffffffffffffffffffffffff16021790555034801561006957600080fd5b506106cd806100796000396000f3fe608060405234801561001057600080fd5b506004361061002b5760003560e01c8063d65da44a14610030575b600080fd5b61004a600480360381019061004591906102ac565b61004c565b005b60008081548092919061005e90610366565b91905055506040518060c001604052806000548152602001848152602001838152602001828152602001600081526020016000151581525060026000805481526020019081526020016000206000820151816000015560208201518160010190816100c991906105c5565b506040820151816002015560608201518160030190816100e991906105c5565b506080820151816004015560a08201518160050160006101000a81548160ff021916908315150217905550905050505050565b6000604051905090565b600080fd5b600080fd5b600080fd5b600080fd5b6000601f19601f8301169050919050565b7f4e487b7100000000000000000000000000000000000000000000000000000000600052604160045260246000fd5b6101838261013a565b810181811067ffffffffffffffff821117156101a2576101a161014b565b5b80604052505050565b60006101b561011c565b90506101c1828261017a565b919050565b600067ffffffffffffffff8211156101e1576101e061014b565b5b6101ea8261013a565b9050602081019050919050565b82818337600083830152505050565b6000610219610214846101c6565b6101ab565b90508281526020810184848401111561023557610234610135565b5b6102408482856101f7565b509392505050565b600082601f83011261025d5761025c610130565b5b813561026d848260208601610206565b91505092915050565b6000819050919050565b61028981610276565b811461029457600080fd5b50565b6000813590506102a681610280565b92915050565b6000806000606084860312156102c5576102c4610126565b5b600084013567ffffffffffffffff8111156102e3576102e261012b565b5b6102ef86828701610248565b935050602061030086828701610297565b925050604084013567ffffffffffffffff8111156103215761032061012b565b5b61032d86828701610248565b9150509250925092565b7f4e487b7100000000000000000000000000000000000000000000000000000000600052601160045260246000fd5b600061037182610276565b91507fffffffffffffffffffffffffffffffffffffffffffffffffffffffffffffffff82036103a3576103a2610337565b5b600182019050919050565b600081519050919050565b7f4e487b7100000000000000000000000000000000000000000000000000000000600052602260045260246000fd5b6000600282049050600182168061040057607f821691505b602082108103610413576104126103b9565b5b50919050565b60008190508160005260206000209050919050565b60006020601f8301049050919050565b600082821b905092915050565b60006008830261047b7fffffffffffffffffffffffffffffffffffffffffffffffffffffffffffffffff8261043e565b610485868361043e565b95508019841693508086168417925050509392505050565b6000819050919050565b60006104c26104bd6104b884610276565b61049d565b610276565b9050919050565b6000819050919050565b6104dc836104a7565b6104f06104e8826104c9565b84845461044b565b825550505050565b600090565b6105056104f8565b6105108184846104d3565b505050565b5b81811015610534576105296000826104fd565b600181019050610516565b5050565b601f8211156105795761054a81610419565b6105538461042e565b81016020851015610562578190505b61057661056e8561042e565b830182610515565b50505b505050565b600082821c905092915050565b600061059c6000198460080261057e565b1980831691505092915050565b60006105b5838361058b565b9150826002028217905092915050565b6105ce826103ae565b67ffffffffffffffff8111156105e7576105e661014b565b5b6105f182546103e8565b6105fc828285610538565b600060209050601f83116001811461062f576000841561061d578287015190505b61062785826105a9565b86555061068f565b601f19841661063d86610419565b60005b8281101561066557848901518255600182019150602085019450602081019050610640565b86831015610682578489015161067e601f89168261058b565b8355505b6001600288020188555050505b50505050505056fea264697066735822122015baae617fc301d92d0586176bd2d3c567a23023fa7e328af8758b0c763d68d264736f6c63430008110033",
  "linkReferences": {},
  "deployedLinkReferences": {}
}